{
  "_format": "hh-sol-artifact-1",
  "contractName": "NODERewardManager",
  "sourceName": "contracts/NODERewardManager.sol",
  "abi": [
    {
      "inputs": [
        {
          "internalType": "address",
          "name": "token",
          "type": "address"
        },
        {
          "internalType": "address[]",
          "name": "payees",
          "type": "address[]"
        },
        {
          "internalType": "uint256[]",
          "name": "shares",
          "type": "uint256[]"
        },
        {
          "internalType": "address[]",
          "name": "addresses",
          "type": "address[]"
        },
        {
          "internalType": "uint256[]",
          "name": "fees",
          "type": "uint256[]"
        },
        {
          "internalType": "uint256",
          "name": "swapAmount",
          "type": "uint256"
        },
        {
          "internalType": "address",
          "name": "uniV2Router",
          "type": "address"
        }
      ],
      "stateMutability": "nonpayable",
      "type": "constructor"
    },
    {
      "anonymous": false,
      "inputs": [
        {
          "indexed": true,
          "internalType": "contract IERC20",
          "name": "token",
          "type": "address"
        },
        {
          "indexed": false,
          "internalType": "address",
          "name": "to",
          "type": "address"
        },
        {
          "indexed": false,
          "internalType": "uint256",
          "name": "amount",
          "type": "uint256"
        }
      ],
      "name": "ERC20PaymentReleased",
      "type": "event"
    },
    {
      "anonymous": false,
      "inputs": [
        {
          "indexed": false,
          "internalType": "address",
          "name": "account",
          "type": "address"
        },
        {
          "indexed": false,
          "internalType": "uint256",
          "name": "shares",
          "type": "uint256"
        }
      ],
      "name": "PayeeAdded",
      "type": "event"
    },
    {
      "anonymous": false,
      "inputs": [
        {
          "indexed": false,
          "internalType": "address",
          "name": "from",
          "type": "address"
        },
        {
          "indexed": false,
          "internalType": "uint256",
          "name": "amount",
          "type": "uint256"
        }
      ],
      "name": "PaymentReceived",
      "type": "event"
    },
    {
      "anonymous": false,
      "inputs": [
        {
          "indexed": false,
          "internalType": "address",
          "name": "to",
          "type": "address"
        },
        {
          "indexed": false,
          "internalType": "uint256",
          "name": "amount",
          "type": "uint256"
        }
      ],
      "name": "PaymentReleased",
      "type": "event"
    },
    {
      "anonymous": false,
      "inputs": [
        {
          "indexed": false,
          "internalType": "uint256",
          "name": "tokensSwapped",
          "type": "uint256"
        },
        {
          "indexed": false,
          "internalType": "uint256",
          "name": "ethReceived",
          "type": "uint256"
        },
        {
          "indexed": false,
          "internalType": "uint256",
          "name": "tokensIntoLiqudity",
          "type": "uint256"
        }
      ],
      "name": "SwapAndLiquify",
      "type": "event"
    },
    {
      "inputs": [],
      "name": "_defaultNodeTypeName",
      "outputs": [
        {
          "internalType": "string",
          "name": "",
          "type": "string"
        }
      ],
      "stateMutability": "view",
      "type": "function"
    },
    {
      "inputs": [],
      "name": "_gateKeeper",
      "outputs": [
        {
          "internalType": "address",
          "name": "",
          "type": "address"
        }
      ],
      "stateMutability": "view",
      "type": "function"
    },
    {
      "inputs": [],
      "name": "_gemTokenAddress",
      "outputs": [
        {
          "internalType": "address",
          "name": "",
          "type": "address"
        }
      ],
      "stateMutability": "view",
      "type": "function"
    },
    {
      "inputs": [],
      "name": "_uniswapV2Router",
      "outputs": [
        {
          "internalType": "contract IJoeRouter02",
          "name": "",
          "type": "address"
        }
      ],
      "stateMutability": "view",
      "type": "function"
    },
    {
      "inputs": [
        {
          "internalType": "string",
          "name": "nodeTypeName",
          "type": "string"
        },
        {
          "internalType": "uint256[]",
          "name": "values",
          "type": "uint256[]"
        }
      ],
      "name": "addNodeType",
      "outputs": [],
      "stateMutability": "nonpayable",
      "type": "function"
    },
    {
      "inputs": [
        {
          "internalType": "address",
          "name": "user",
          "type": "address"
        }
      ],
      "name": "calculateAllClaimableRewards",
      "outputs": [
        {
          "internalType": "uint256",
          "name": "",
          "type": "uint256"
        }
      ],
      "stateMutability": "view",
      "type": "function"
    },
    {
      "inputs": [],
      "name": "cashoutAll",
      "outputs": [],
      "stateMutability": "nonpayable",
      "type": "function"
    },
    {
      "inputs": [],
      "name": "cashoutFee",
      "outputs": [
        {
          "internalType": "uint256",
          "name": "",
          "type": "uint256"
        }
      ],
      "stateMutability": "view",
      "type": "function"
    },
    {
      "inputs": [
        {
          "internalType": "string",
          "name": "nodeTypeName",
          "type": "string"
        },
        {
          "internalType": "uint256",
          "name": "nodePrice",
          "type": "uint256"
        },
        {
          "internalType": "uint256",
          "name": "claimTime",
          "type": "uint256"
        },
        {
          "internalType": "uint256",
          "name": "rewardAmount",
          "type": "uint256"
        },
        {
          "internalType": "uint256",
          "name": "claimTaxBeforeTime",
          "type": "uint256"
        },
        {
          "internalType": "uint256",
          "name": "max",
          "type": "uint256"
        },
        {
          "internalType": "uint256",
          "name": "earlyClaimTax",
          "type": "uint256"
        },
        {
          "internalType": "uint256",
          "name": "maxLevelUpGlobal",
          "type": "uint256"
        },
        {
          "internalType": "uint256",
          "name": "maxLevelUpUser",
          "type": "uint256"
        },
        {
          "internalType": "uint256",
          "name": "maxCreationPendingGlobal",
          "type": "uint256"
        },
        {
          "internalType": "uint256",
          "name": "maxCreationPendingUser",
          "type": "uint256"
        }
      ],
      "name": "changeNodeType",
      "outputs": [],
      "stateMutability": "nonpayable",
      "type": "function"
    },
    {
      "inputs": [
        {
          "internalType": "string",
          "name": "nodeTypeName",
          "type": "string"
        },
        {
          "internalType": "uint256",
          "name": "count",
          "type": "uint256"
        }
      ],
      "name": "createNodeWithPending",
      "outputs": [],
      "stateMutability": "nonpayable",
      "type": "function"
    },
    {
      "inputs": [
        {
          "internalType": "string",
          "name": "nodeTypeName",
          "type": "string"
        },
        {
          "internalType": "uint256",
          "name": "count",
          "type": "uint256"
        }
      ],
      "name": "createNodeWithTokens",
      "outputs": [],
      "stateMutability": "nonpayable",
      "type": "function"
    },
    {
      "inputs": [],
      "name": "distributionPool",
      "outputs": [
        {
          "internalType": "address",
          "name": "",
          "type": "address"
        }
      ],
      "stateMutability": "view",
      "type": "function"
    },
    {
      "inputs": [
        {
          "internalType": "string",
          "name": "nodeTypeName",
          "type": "string"
        }
      ],
      "name": "getNodeTypeAll",
      "outputs": [
        {
          "internalType": "uint256[]",
          "name": "",
          "type": "uint256[]"
        }
      ],
      "stateMutability": "view",
      "type": "function"
    },
    {
      "inputs": [
        {
          "internalType": "string",
          "name": "nodeTypeName",
          "type": "string"
        },
        {
          "internalType": "address",
          "name": "_owner",
          "type": "address"
        }
      ],
      "name": "getNodeTypeLevelUp",
      "outputs": [
        {
          "internalType": "uint256",
          "name": "",
          "type": "uint256"
        }
      ],
      "stateMutability": "view",
      "type": "function"
    },
    {
      "inputs": [
        {
          "internalType": "uint256",
          "name": "i",
          "type": "uint256"
        }
      ],
      "name": "getNodeTypeNameAtIndex",
      "outputs": [
        {
          "internalType": "string",
          "name": "",
          "type": "string"
        }
      ],
      "stateMutability": "view",
      "type": "function"
    },
    {
      "inputs": [
        {
          "internalType": "string",
          "name": "nodeTypeName",
          "type": "string"
        },
        {
          "internalType": "uint256",
          "name": "i",
          "type": "uint256"
        }
      ],
      "name": "getNodeTypeNameData",
      "outputs": [
        {
          "internalType": "uint256",
          "name": "",
          "type": "uint256"
        }
      ],
      "stateMutability": "view",
      "type": "function"
    },
    {
      "inputs": [
        {
          "internalType": "string",
          "name": "nodeTypeName",
          "type": "string"
        },
        {
          "internalType": "address",
          "name": "_owner",
          "type": "address"
        }
      ],
      "name": "getNodeTypeOwnerCreatedPending",
      "outputs": [
        {
          "internalType": "uint256",
          "name": "",
          "type": "uint256"
        }
      ],
      "stateMutability": "view",
      "type": "function"
    },
    {
      "inputs": [
        {
          "internalType": "string",
          "name": "nodeTypeName",
          "type": "string"
        },
        {
          "internalType": "address",
          "name": "_owner",
          "type": "address"
        }
      ],
      "name": "getNodeTypeOwnerNumber",
      "outputs": [
        {
          "internalType": "uint256",
          "name": "",
          "type": "uint256"
        }
      ],
      "stateMutability": "view",
      "type": "function"
    },
    {
      "inputs": [
        {
          "internalType": "uint256",
          "name": "start",
          "type": "uint256"
        },
        {
          "internalType": "uint256",
          "name": "end",
          "type": "uint256"
        }
      ],
      "name": "getNodeTypesAllAt",
      "outputs": [
        {
          "internalType": "uint256[][]",
          "name": "",
          "type": "uint256[][]"
        }
      ],
      "stateMutability": "view",
      "type": "function"
    },
    {
      "inputs": [],
      "name": "getNodeTypesSize",
      "outputs": [
        {
          "internalType": "uint256",
          "name": "",
          "type": "uint256"
        }
      ],
      "stateMutability": "view",
      "type": "function"
    },
    {
      "inputs": [],
      "name": "getTotalCreatedNodes",
      "outputs": [
        {
          "internalType": "uint256",
          "name": "",
          "type": "uint256"
        }
      ],
      "stateMutability": "view",
      "type": "function"
    },
    {
      "inputs": [
        {
          "internalType": "address",
          "name": "who",
          "type": "address"
        }
      ],
      "name": "getTotalCreatedNodesOf",
      "outputs": [
        {
          "internalType": "uint256",
          "name": "",
          "type": "uint256"
        }
      ],
      "stateMutability": "view",
      "type": "function"
    },
    {
      "inputs": [
        {
          "internalType": "string[]",
          "name": "nodeTypeNames",
          "type": "string[]"
        },
        {
          "internalType": "string",
          "name": "target",
          "type": "string"
        }
      ],
      "name": "levelUp",
      "outputs": [],
      "stateMutability": "nonpayable",
      "type": "function"
    },
    {
      "inputs": [],
      "name": "liquidityPool",
      "outputs": [
        {
          "internalType": "address",
          "name": "",
          "type": "address"
        }
      ],
      "stateMutability": "view",
      "type": "function"
    },
    {
      "inputs": [],
      "name": "liquidityPoolFee",
      "outputs": [
        {
          "internalType": "uint256",
          "name": "",
          "type": "uint256"
        }
      ],
      "stateMutability": "view",
      "type": "function"
    },
    {
      "inputs": [
        {
          "internalType": "uint256",
          "name": "index",
          "type": "uint256"
        }
      ],
      "name": "payee",
      "outputs": [
        {
          "internalType": "address",
          "name": "",
          "type": "address"
        }
      ],
      "stateMutability": "view",
      "type": "function"
    },
    {
      "inputs": [
        {
          "internalType": "address payable",
          "name": "account",
          "type": "address"
        }
      ],
      "name": "release",
      "outputs": [],
      "stateMutability": "nonpayable",
      "type": "function"
    },
    {
      "inputs": [
        {
          "internalType": "contract IERC20",
          "name": "token",
          "type": "address"
        },
        {
          "internalType": "address",
          "name": "account",
          "type": "address"
        }
      ],
      "name": "release",
      "outputs": [],
      "stateMutability": "nonpayable",
      "type": "function"
    },
    {
      "inputs": [
        {
          "internalType": "contract IERC20",
          "name": "token",
          "type": "address"
        },
        {
          "internalType": "address",
          "name": "account",
          "type": "address"
        }
      ],
      "name": "released",
      "outputs": [
        {
          "internalType": "uint256",
          "name": "",
          "type": "uint256"
        }
      ],
      "stateMutability": "view",
      "type": "function"
    },
    {
      "inputs": [
        {
          "internalType": "address",
          "name": "account",
          "type": "address"
        }
      ],
      "name": "released",
      "outputs": [
        {
          "internalType": "uint256",
          "name": "",
          "type": "uint256"
        }
      ],
      "stateMutability": "view",
      "type": "function"
    },
    {
      "inputs": [],
      "name": "rewardsFee",
      "outputs": [
        {
          "internalType": "uint256",
          "name": "",
          "type": "uint256"
        }
      ],
      "stateMutability": "view",
      "type": "function"
    },
    {
      "inputs": [
        {
          "internalType": "string",
          "name": "nodeTypeName",
          "type": "string"
        }
      ],
      "name": "setDefaultNodeTypeName",
      "outputs": [],
      "stateMutability": "nonpayable",
      "type": "function"
    },
    {
      "inputs": [
        {
          "internalType": "address",
          "name": "token",
          "type": "address"
        }
      ],
      "name": "setToken",
      "outputs": [],
      "stateMutability": "nonpayable",
      "type": "function"
    },
    {
      "inputs": [
        {
          "internalType": "address",
          "name": "account",
          "type": "address"
        }
      ],
      "name": "shares",
      "outputs": [
        {
          "internalType": "uint256",
          "name": "",
          "type": "uint256"
        }
      ],
      "stateMutability": "view",
      "type": "function"
    },
    {
      "inputs": [],
      "name": "swapTokensAmount",
      "outputs": [
        {
          "internalType": "uint256",
          "name": "",
          "type": "uint256"
        }
      ],
      "stateMutability": "view",
      "type": "function"
    },
    {
      "inputs": [],
      "name": "totalFees",
      "outputs": [
        {
          "internalType": "uint256",
          "name": "",
          "type": "uint256"
        }
      ],
      "stateMutability": "view",
      "type": "function"
    },
    {
      "inputs": [
        {
          "internalType": "contract IERC20",
          "name": "token",
          "type": "address"
        }
      ],
      "name": "totalReleased",
      "outputs": [
        {
          "internalType": "uint256",
          "name": "",
          "type": "uint256"
        }
      ],
      "stateMutability": "view",
      "type": "function"
    },
    {
      "inputs": [],
      "name": "totalReleased",
      "outputs": [
        {
          "internalType": "uint256",
          "name": "",
          "type": "uint256"
        }
      ],
      "stateMutability": "view",
      "type": "function"
    },
    {
      "inputs": [],
      "name": "totalShares",
      "outputs": [
        {
          "internalType": "uint256",
          "name": "",
          "type": "uint256"
        }
      ],
      "stateMutability": "view",
      "type": "function"
    },
    {
      "inputs": [],
      "name": "treasuryFee",
      "outputs": [
        {
          "internalType": "uint256",
          "name": "",
          "type": "uint256"
        }
      ],
      "stateMutability": "view",
      "type": "function"
    },
    {
      "inputs": [],
      "name": "treasuryUsePool",
      "outputs": [
        {
          "internalType": "address",
          "name": "",
          "type": "address"
        }
      ],
      "stateMutability": "view",
      "type": "function"
    },
    {
      "inputs": [
        {
          "internalType": "uint256",
          "name": "value",
          "type": "uint256"
        }
      ],
      "name": "updateCashoutFee",
      "outputs": [],
      "stateMutability": "nonpayable",
      "type": "function"
    },
    {
      "inputs": [
        {
          "internalType": "address",
          "name": "_new",
          "type": "address"
        }
      ],
      "name": "updateGateKeeper",
      "outputs": [],
      "stateMutability": "nonpayable",
      "type": "function"
    },
    {
      "inputs": [
        {
          "internalType": "uint256",
          "name": "value",
          "type": "uint256"
        }
      ],
      "name": "updateLiquiditFee",
      "outputs": [],
      "stateMutability": "nonpayable",
      "type": "function"
    },
    {
      "inputs": [
        {
          "internalType": "bool",
          "name": "value",
          "type": "bool"
        }
      ],
      "name": "updateOpenCreate",
      "outputs": [],
      "stateMutability": "nonpayable",
      "type": "function"
    },
    {
      "inputs": [
        {
          "internalType": "bool",
          "name": "value",
          "type": "bool"
        }
      ],
      "name": "updateOpenLevelUp",
      "outputs": [],
      "stateMutability": "nonpayable",
      "type": "function"
    },
    {
      "inputs": [
        {
          "internalType": "uint256",
          "name": "value",
          "type": "uint256"
        }
      ],
      "name": "updateRewardsFee",
      "outputs": [],
      "stateMutability": "nonpayable",
      "type": "function"
    },
    {
      "inputs": [
        {
          "internalType": "address payable",
          "name": "wall",
          "type": "address"
        }
      ],
      "name": "updateRewardsWall",
      "outputs": [],
      "stateMutability": "nonpayable",
      "type": "function"
    },
    {
      "inputs": [
        {
          "internalType": "uint256",
          "name": "newVal",
          "type": "uint256"
        }
      ],
      "name": "updateSwapTokensAmount",
      "outputs": [],
      "stateMutability": "nonpayable",
      "type": "function"
    },
    {
      "inputs": [
        {
          "internalType": "uint256",
          "name": "value",
          "type": "uint256"
        }
      ],
      "name": "updateTreasuryFee",
      "outputs": [],
      "stateMutability": "nonpayable",
      "type": "function"
    },
    {
      "inputs": [
        {
          "internalType": "address payable",
          "name": "wall",
          "type": "address"
        }
      ],
      "name": "updateTreasuryWall",
      "outputs": [],
      "stateMutability": "nonpayable",
      "type": "function"
    },
    {
      "inputs": [
        {
          "internalType": "address",
          "name": "newAddress",
          "type": "address"
        }
      ],
      "name": "updateUniswapV2Router",
      "outputs": [],
      "stateMutability": "nonpayable",
      "type": "function"
    },
    {
      "stateMutability": "payable",
      "type": "receive"
    }
  ],
  "bytecode": "0x6080604052601a805461ffff19908116610100908117909255601c805462ff00001992169092171690553480156200003657600080fd5b506040516200635238038062006352833981016040819052620000599162000925565b85858051825114620000cd5760405162461bcd60e51b815260206004820152603260248201527f5061796d656e7453706c69747465723a2070617965657320616e6420736861726044820152710cae640d8cadccee8d040dad2e6dac2e8c6d60731b60648201526084015b60405180910390fd5b6000825111620001205760405162461bcd60e51b815260206004820152601a60248201527f5061796d656e7453706c69747465723a206e6f207061796565730000000000006044820152606401620000c4565b60005b8251811015620001a4576200018f8382815181106200015257634e487b7160e01b600052603260045260246000fd5b60200260200101518383815181106200017b57634e487b7160e01b600052603260045260246000fd5b60200260200101516200063e60201b60201c565b806200019b8162000a9f565b91505062000123565b5050600e8054336001600160a01b031991821617909155600f80549091166001600160a01b038a161790555083518490600090620001f257634e487b7160e01b600052603260045260246000fd5b6020026020010151601260006101000a8154816001600160a01b0302191690836001600160a01b03160217905550836001815181106200024257634e487b7160e01b600052603260045260246000fd5b6020026020010151601360006101000a8154816001600160a01b0302191690836001600160a01b03160217905550836002815181106200029257634e487b7160e01b600052603260045260246000fd5b6020908102919091010151601480546001600160a01b0319166001600160a01b039283161790556012541615801590620002d657506013546001600160a01b031615155b8015620002ed57506014546001600160a01b031615155b620003525760405162461bcd60e51b815260206004820152602e60248201527f54524541535552592c20524557415244202620504f4f4c20414444524553532060448201526d43414e4e4f54204245205a45524f60901b6064820152608401620000c4565b6001600160a01b038116620003aa5760405162461bcd60e51b815260206004820152601560248201527f524f555445522043414e4e4f54204245205a45524f00000000000000000000006044820152606401620000c4565b601180546001600160a01b0319166001600160a01b03831617905582518390600090620003e757634e487b7160e01b600052603260045260246000fd5b60200260200101516000141580156200042a5750826001815181106200041d57634e487b7160e01b600052603260045260246000fd5b6020026020010151600014155b8015620004615750826002815181106200045457634e487b7160e01b600052603260045260246000fd5b6020026020010151600014155b8015620004985750826003815181106200048b57634e487b7160e01b600052603260045260246000fd5b6020026020010151600014155b620004e65760405162461bcd60e51b815260206004820152601460248201527f434f4e5354523a204665657320657175616c20300000000000000000000000006044820152606401620000c4565b826000815181106200050857634e487b7160e01b600052603260045260246000fd5b6020026020010151601781905550826001815181106200053857634e487b7160e01b600052603260045260246000fd5b6020026020010151601581905550826002815181106200056857634e487b7160e01b600052603260045260246000fd5b6020026020010151601681905550826003815181106200059857634e487b7160e01b600052603260045260246000fd5b6020026020010151601981905550601754601654601554620005bb919062000a62565b620005c7919062000a62565b60185581620006195760405162461bcd60e51b815260206004820152601d60248201527f434f4e5354523a205377617020616d6f756e7420696e636f72726563740000006044820152606401620000c4565b6200062d82670de0b6b3a764000062000a7d565b601b555062000ae995505050505050565b6001600160a01b038216620006ab5760405162461bcd60e51b815260206004820152602c60248201527f5061796d656e7453706c69747465723a206163636f756e74206973207468652060448201526b7a65726f206164647265737360a01b6064820152608401620000c4565b60008111620006fd5760405162461bcd60e51b815260206004820152601d60248201527f5061796d656e7453706c69747465723a207368617265732061726520300000006044820152606401620000c4565b6001600160a01b03821660009081526002602052604090205415620007795760405162461bcd60e51b815260206004820152602b60248201527f5061796d656e7453706c69747465723a206163636f756e7420616c726561647960448201526a206861732073686172657360a81b6064820152608401620000c4565b60048054600181019091557f8a35acfbc15ff81a39ae7d344fd709f28e8600b4aa8c65c6b64bfe7fe36bd19b0180546001600160a01b0319166001600160a01b038416908117909155600090815260026020526040812082905554620007e190829062000a62565b600055604080516001600160a01b0384168152602081018390527f40c340f65e17194d14ddddb073d3c9f888e3cb52b5aae0c6c7706b4fbc905fac910160405180910390a15050565b80516001600160a01b03811681146200084257600080fd5b919050565b600082601f83011262000858578081fd5b81516020620008716200086b8362000a3c565b62000a09565b82815281810190858301838502870184018810156200088e578586fd5b855b85811015620008b757620008a4826200082a565b8452928401929084019060010162000890565b5090979650505050505050565b600082601f830112620008d5578081fd5b81516020620008e86200086b8362000a3c565b828152818101908583018385028701840188101562000905578586fd5b855b85811015620008b75781518452928401929084019060010162000907565b600080600080600080600060e0888a03121562000940578283fd5b6200094b886200082a565b60208901519097506001600160401b038082111562000968578485fd5b620009768b838c0162000847565b975060408a01519150808211156200098c578485fd5b6200099a8b838c01620008c4565b965060608a0151915080821115620009b0578485fd5b620009be8b838c0162000847565b955060808a0151915080821115620009d4578485fd5b50620009e38a828b01620008c4565b93505060a08801519150620009fb60c089016200082a565b905092959891949750929550565b604051601f8201601f191681016001600160401b038111828210171562000a345762000a3462000ad3565b604052919050565b60006001600160401b0382111562000a585762000a5862000ad3565b5060209081020190565b6000821982111562000a785762000a7862000abd565b500190565b600081600019048311821515161562000a9a5762000a9a62000abd565b500290565b600060001982141562000ab65762000ab662000abd565b5060010190565b634e487b7160e01b600052601160045260246000fd5b634e487b7160e01b600052604160045260246000fd5b6158598062000af96000396000f3fe6080604052600436106103035760003560e01c80636d9ae0be11610190578063ca721f22116100dc578063d79779b211610095578063e33b7de31161006f578063e33b7de31461099a578063ef630563146109af578063f54549bc146109cf578063f5c37495146109ef5761034c565b8063d79779b214610924578063d8a911d91461095a578063e19d3c481461097a5761034c565b8063ca721f2214610861578063cc32d17614610876578063ce7c2ac21461088c578063d0619439146108c2578063d0aeb246146108ef578063d6a0d2ee1461090f5761034c565b80639f3b0abe11610149578063b649224711610123578063b6492247146107e1578063bbc6799814610801578063c4c6903814610821578063c5ca7d6d146108415761034c565b80639f3b0abe1461077f578063a0a8fe65146107ac578063aed4b316146107c15761034c565b80636d9ae0be146106b3578063795e0113146106c95780638b83209b146106e95780639349c47d1461070957806397232830146107295780639852595c146107495761034c565b806342bc9fca1161024f57806354f12f1f1161020857806365b8dbc0116101e257806365b8dbc014610633578063665a11ca146106535780636770474b146106735780636815a91c146106935761034c565b806354f12f1f146105cf578063583e0568146105e55780635f1c31821461061d5761034c565b806342bc9fca1461050d57806347aab1f81461052d57806348b750441461055a5780634c0768fc1461057a5780634c7f490e1461059a57806354557973146105ba5761034c565b80631ff9e195116102bc5780633a98ef39116102965780633a98ef39146104725780633d80733d146104875780633f8bdd22146104a7578063406072a9146104c75761034c565b80631ff9e1951461041c578063255d7d551461043c5780632bb14e1d1461045c5761034c565b806301251f2a14610351578063035f722b14610384578063084a6bff146103a657806313114a9d146103c6578063144fa6d7146103dc57806319165587146103fc5761034c565b3661034c577f6ef95f06320e7a25a04a175ca677b7052bdd97131872c2192525a629f51be77033604080516001600160a01b0390921682523460208301520160405180910390a1005b600080fd5b34801561035d57600080fd5b5061037161036c366004614e50565b610a0f565b6040519081526020015b60405180910390f35b34801561039057600080fd5b506103a461039f366004615038565b610c9f565b005b3480156103b257600080fd5b506103a46103c13660046152a9565b610ff1565b3480156103d257600080fd5b5061037160185481565b3480156103e857600080fd5b506103a46103f7366004614e50565b611055565b34801561040857600080fd5b506103a4610417366004614e50565b6110b6565b34801561042857600080fd5b50610371610437366004614ff3565b6111e4565b34801561044857600080fd5b506103a4610457366004614e88565b611239565b34801561046857600080fd5b5061037160155481565b34801561047e57600080fd5b50600054610371565b34801561049357600080fd5b506103716104a2366004614ff3565b6117a2565b3480156104b357600080fd5b506103a46104c2366004614e50565b6117c9565b3480156104d357600080fd5b506103716104e2366004614f70565b6001600160a01b03918216600090815260066020908152604080832093909416825291909152205490565b34801561051957600080fd5b506103a46105283660046152a9565b61182a565b34801561053957600080fd5b5061054d6105483660046152c1565b61187f565b60405161037b9190615391565b34801561056657600080fd5b506103a4610575366004614f70565b6119d2565b34801561058657600080fd5b506103a4610595366004614f38565b611bba565b3480156105a657600080fd5b506103716105b5366004614e50565b611c13565b3480156105c657600080fd5b506103a4611cec565b3480156105db57600080fd5b5061037160165481565b3480156105f157600080fd5b50601154610605906001600160a01b031681565b6040516001600160a01b03909116815260200161037b565b34801561062957600080fd5b50610371601b5481565b34801561063f57600080fd5b506103a461064e366004614e50565b612091565b34801561065f57600080fd5b50601454610605906001600160a01b031681565b34801561067f57600080fd5b506103a461068e3660046152a9565b612161565b34801561069f57600080fd5b506103a46106ae3660046152a9565b6121a5565b3480156106bf57600080fd5b5061037160195481565b3480156106d557600080fd5b506103716106e43660046150f1565b6121e9565b3480156106f557600080fd5b506106056107043660046152a9565b6128cf565b34801561071557600080fd5b506103a4610724366004614e50565b61290d565b34801561073557600080fd5b506103a46107443660046152a9565b61296e565b34801561075557600080fd5b50610371610764366004614e50565b6001600160a01b031660009081526003602052604090205490565b34801561078b57600080fd5b5061079f61079a3660046152a9565b6129c3565b60405161037b9190615404565b3480156107b857600080fd5b50610371612a5b565b3480156107cd57600080fd5b50601254610605906001600160a01b031681565b3480156107ed57600080fd5b506103a46107fc3660046150f1565b612ba0565b34801561080d57600080fd5b506103a461081c3660046150f1565b61314b565b34801561082d57600080fd5b506103a461083c366004615134565b613692565b34801561084d57600080fd5b50601354610605906001600160a01b031681565b34801561086d57600080fd5b5061079f613864565b34801561088257600080fd5b5061037160175481565b34801561089857600080fd5b506103716108a7366004614e50565b6001600160a01b031660009081526002602052604090205490565b3480156108ce57600080fd5b506108e26108dd366004614fc0565b6138f2565b60405161037b91906153f1565b3480156108fb57600080fd5b50600f54610605906001600160a01b031681565b34801561091b57600080fd5b50610371613d32565b34801561093057600080fd5b5061037161093f366004614e50565b6001600160a01b031660009081526005602052604090205490565b34801561096657600080fd5b50610371610975366004614ff3565b613dbd565b34801561098657600080fd5b506103a4610995366004614f38565b613de4565b3480156109a657600080fd5b50600154610371565b3480156109bb57600080fd5b50600e54610605906001600160a01b031681565b3480156109db57600080fd5b506103a46109ea366004614fc0565b613e3f565b3480156109fb57600080fd5b506103a4610a0a366004614e50565b613ee1565b6000610a19614c7b565b6000805b604051630fd2479b60e31b81526007600482015273__$f4f4ad711baf0b6680854290afed407660$__90637e923cd89060240160206040518083038186803b158015610a6857600080fd5b505af4158015610a7c573d6000803e3d6000fd5b505050506040513d601f19601f82011682018060405250810190610aa09190614fa8565b811015610c9757604051633846629960e01b8152600760048201526024810182905273__$f4f4ad711baf0b6680854290afed407660$__9063384662999060440160006040518083038186803b158015610af957600080fd5b505af4158015610b0d573d6000803e3d6000fd5b505050506040513d6000823e601f3d908101601f19168201604052610b3591908101906151c6565b92506000600b8460000151604051610b4d9190615375565b90815260408051602092819003830190206001600160a01b03891660009081529252812091505b8154811015610c8257610c64828281548110610ba057634e487b7160e01b600052603260045260246000fd5b9060005260206000209060030201604051806060016040529081600082018054610bc99061577e565b80601f0160208091040260200160405190810160405280929190818152602001828054610bf59061577e565b8015610c425780601f10610c1757610100808354040283529160200191610c42565b820191906000526020600020905b815481529060010190602001808311610c2557829003601f168201915b5050505050815260200160018201548152602001600282015481525050613f42565b610c6e90856156e4565b935080610c7a816157b9565b915050610b74565b50508080610c8f906157b9565b915050610a1d565b509392505050565b600f546001600160a01b0316331480610cc25750600e546001600160a01b031633145b610ce75760405162461bcd60e51b8152600401610cde90615417565b60405180910390fd5b6000825111610d385760405162461bcd60e51b815260206004820152601760248201527f6164644e6f6465547970653a20456d707479206e616d650000000000000000006044820152606401610cde565b610d41826141f0565b15610d9d5760405162461bcd60e51b815260206004820152602660248201527f6164644e6f6465547970653a2073616d65206e6f6465547970654e616d6520656044820152653c34b9ba399760d11b6064820152608401610cde565b600773__$f4f4ad711baf0b6680854290afed407660$__634174008590918460405180610180016040528087815260200186600081518110610def57634e487b7160e01b600052603260045260246000fd5b6020026020010151815260200186600181518110610e1d57634e487b7160e01b600052603260045260246000fd5b6020026020010151815260200186600281518110610e4b57634e487b7160e01b600052603260045260246000fd5b6020026020010151815260200186600381518110610e7957634e487b7160e01b600052603260045260246000fd5b602002602001015181526020016000815260200186600481518110610eae57634e487b7160e01b600052603260045260246000fd5b6020026020010151815260200186600581518110610edc57634e487b7160e01b600052603260045260246000fd5b6020026020010151815260200186600681518110610f0a57634e487b7160e01b600052603260045260246000fd5b6020026020010151815260200186600781518110610f3857634e487b7160e01b600052603260045260246000fd5b6020026020010151815260200186600881518110610f6657634e487b7160e01b600052603260045260246000fd5b6020026020010151815260200186600981518110610f9457634e487b7160e01b600052603260045260246000fd5b60200260200101518152506040518463ffffffff1660e01b8152600401610fbd9392919061553c565b60006040518083038186803b158015610fd557600080fd5b505af4158015610fe9573d6000803e3d6000fd5b505050505050565b600f546001600160a01b03163314806110145750600e546001600160a01b031633145b6110305760405162461bcd60e51b8152600401610cde90615417565b601581905560175460165461104590836156e4565b61104f91906156e4565b60185550565b600f546001600160a01b03163314806110785750600e546001600160a01b031633145b6110945760405162461bcd60e51b8152600401610cde90615417565b600f80546001600160a01b0319166001600160a01b0392909216919091179055565b6001600160a01b0381166000908152600260205260409020546110eb5760405162461bcd60e51b8152600401610cde90615447565b60006110f660015490565b61110090476156e4565b9050600061112d8383611128866001600160a01b031660009081526003602052604090205490565b614287565b90508061114c5760405162461bcd60e51b8152600401610cde9061548d565b6001600160a01b038316600090815260036020526040812080548392906111749084906156e4565b92505081905550806001600082825461118d91906156e4565b9091555061119d905083826142c2565b604080516001600160a01b0385168152602081018390527fdf20fd1e76bc69d672e4814fafb2c449bba3a5369d8359adf9e05e6fde87b056910160405180910390a1505050565b60006111ef836141f0565b6111fb57506000611233565b600d8360405161120b9190615375565b90815260408051602092819003830190206001600160a01b0385166000908152925290205490505b92915050565b601c5462010000900460ff166112915760405162461bcd60e51b815260206004820181905260248201527f4e6f6465206c6576656c207570206e6f7420617574686f72697a6564207965746044820152606401610cde565b61129a816141f0565b6112dc5760405162461bcd60e51b81526020600482015260136024820152721d185c99d95d08191bd95cdb9d08195e1a5cdd606a1b6044820152606401610cde565b604051635bce6b3b60e01b815260009073__$f4f4ad711baf0b6680854290afed407660$__90635bce6b3b90611319906007908690600401615523565b60206040518083038186803b15801561133157600080fd5b505af4158015611345573d6000803e3d6000fd5b505050506040513d601f19601f820116820180604052508101906113699190614fa8565b90506001816008015410156113ce5760405162461bcd60e51b815260206004820152602560248201527f4e6f206f6e652063616e206c6576656c20757020746869732074797065206f66604482015264206e6f646560d81b6064820152608401610cde565b60018160080160008282546113e3919061573b565b925050819055506001600c836040516113fc9190615375565b90815260408051602092819003830190203360009081529252812080549091906114279084906156e4565b90915550506009810154604051600c90611442908590615375565b9081526040805160209281900383019020336000908152925290205411156114ac5760405162461bcd60e51b815260206004820152601f60248201527f4c6576656c207570206c696d6974207265616368656420666f722075736572006044820152606401610cde565b60018101548060005b8551811080156114c55750600082115b1561174e5760008682815181106114ec57634e487b7160e01b600052603260045260246000fd5b602002602001015190506114ff816141f0565b61153f5760405162461bcd60e51b81526020600482015260116024820152701b985b5948191bd95cdb9d08195e1a5cdd607a1b6044820152606401610cde565b6000600b826040516115519190615375565b90815260408051602092819003830190203360009081529252902054116115a65760405162461bcd60e51b8152602060048201526009602482015268139bdd081bdddb995960ba1b6044820152606401610cde565b604051635bce6b3b60e01b815260009073__$f4f4ad711baf0b6680854290afed407660$__90635bce6b3b906115e3906007908690600401615523565b60206040518083038186803b1580156115fb57600080fd5b505af415801561160f573d6000803e3d6000fd5b505050506040513d601f19601f820116820180604052508101906116339190614fa8565b90508060010154851161167c5760405162461bcd60e51b815260206004820152601160248201527021b0b73737ba103632bb32b6103237bbb760791b6044820152606401610cde565b600b8260405161168c9190615375565b9081526040805160209281900383019020336000908152925290208054806116c457634e487b7160e01b600052603160045260246000fd5b600082815260208120600019909201916003830201906116e48282614cdc565b6001820160009055600282016000905550509055600181600501600082825461170d919061573b565b909155505060018101548410156117275760009350611739565b6001810154611736908561573b565b93505b50508080611746906157b9565b9150506114b5565b50801561178f5760405162461bcd60e51b815260206004820152600f60248201526e139bdd08195b9bdd59da081cd95b9d608a1b6044820152606401610cde565b61179b338560016143e0565b5050505050565b60006117ad836141f0565b6117b957506000611233565b600c8360405161120b9190615375565b600f546001600160a01b03163314806117ec5750600e546001600160a01b031633145b6118085760405162461bcd60e51b8152600401610cde90615417565b600e80546001600160a01b0319166001600160a01b0392909216919091179055565b600f546001600160a01b031633148061184d5750600e546001600160a01b031633145b6118695760405162461bcd60e51b8152600401610cde90615417565b60168190556017546015546110459083906156e4565b6060600061188d848461573b565b67ffffffffffffffff8111156118b357634e487b7160e01b600052604160045260246000fd5b6040519080825280602002602001820160405280156118e657816020015b60608152602001906001900390816118d15790505b509050835b83811015610c9757604051633846629960e01b8152600760048201526024810182905261198b9073__$f4f4ad711baf0b6680854290afed407660$__9063384662999060440160006040518083038186803b15801561194957600080fd5b505af415801561195d573d6000803e3d6000fd5b505050506040513d6000823e601f3d908101601f1916820160405261198591908101906151c6565b516138f2565b82611996878461573b565b815181106119b457634e487b7160e01b600052603260045260246000fd5b602002602001018190525080806119ca906157b9565b9150506118eb565b6001600160a01b038116600090815260026020526040902054611a075760405162461bcd60e51b8152600401610cde90615447565b6001600160a01b0382166000908152600560205260408120546040516370a0823160e01b81523060048201526001600160a01b038516906370a082319060240160206040518083038186803b158015611a5f57600080fd5b505afa158015611a73573d6000803e3d6000fd5b505050506040513d601f19601f82011682018060405250810190611a979190614fa8565b611aa191906156e4565b90506000611ada838361112887876001600160a01b03918216600090815260066020908152604080832093909416825291909152205490565b905080611af95760405162461bcd60e51b8152600401610cde9061548d565b6001600160a01b03808516600090815260066020908152604080832093871683529290529081208054839290611b309084906156e4565b90915550506001600160a01b03841660009081526005602052604081208054839290611b5d9084906156e4565b90915550611b6e905084848361464a565b604080516001600160a01b038581168252602082018490528616917f3be5b7a71e84ed12875d241991c70855ac5817d847039e17a9d895c1ceb0f18a910160405180910390a250505050565b600f546001600160a01b0316331480611bdd5750600e546001600160a01b031633145b611bf95760405162461bcd60e51b8152600401610cde90615417565b601c80549115156101000261ff0019909216919091179055565b600080805b611c20613d32565b811015611ce557604051633846629960e01b8152600760048201526024810182905260009073__$f4f4ad711baf0b6680854290afed407660$__9063384662999060440160006040518083038186803b158015611c7c57600080fd5b505af4158015611c90573d6000803e3d6000fd5b505050506040513d6000823e601f3d908101601f19168201604052611cb891908101906151c6565b519050611cc58186613dbd565b611ccf90846156e4565b9250508080611cdd906157b9565b915050611c18565b5092915050565b33611cf5614c7b565b6000805b604051630fd2479b60e31b81526007600482015273__$f4f4ad711baf0b6680854290afed407660$__90637e923cd89060240160206040518083038186803b158015611d4457600080fd5b505af4158015611d58573d6000803e3d6000fd5b505050506040513d601f19601f82011682018060405250810190611d7c9190614fa8565b811015611ee457604051633846629960e01b8152600760048201526024810182905273__$f4f4ad711baf0b6680854290afed407660$__9063384662999060440160006040518083038186803b158015611dd557600080fd5b505af4158015611de9573d6000803e3d6000fd5b505050506040513d6000823e601f3d908101601f19168201604052611e1191908101906151c6565b92506000600b8460000151604051611e299190615375565b90815260408051602092819003830190206001600160a01b03881660009081529252812091505b8154811015611ecf57611e7c828281548110610ba057634e487b7160e01b600052603260045260246000fd5b611e8690856156e4565b935042828281548110611ea957634e487b7160e01b600052603260045260246000fd5b600091825260209091206002600390920201015580611ec7816157b9565b915050611e50565b50508080611edc906157b9565b915050611cf9565b5060008111611f285760405162461bcd60e51b815260206004820152601060248201526f4e6f7468696e6720746f20636c61696d60801b6044820152606401610cde565b600f546013546040516323b872dd60e01b81526001600160a01b039182166004820152306024820152604481018490529116906323b872dd90606401602060405180830381600087803b158015611f7e57600080fd5b505af1158015611f92573d6000803e3d6000fd5b505050506040513d601f19601f82011682018060405250810190611fb69190614f54565b50601a54610100900460ff16156120055760195460009015611ff757606460195483611fe2919061571c565b611fec91906156fc565b9050611ff78161469c565b612001818361573b565b9150505b600f5460405163a9059cbb60e01b81526001600160a01b038581166004830152602482018490529091169063a9059cbb90604401602060405180830381600087803b15801561205357600080fd5b505af1158015612067573d6000803e3d6000fd5b505050506040513d601f19601f8201168201806040525081019061208b9190614f54565b50505050565b600f546001600160a01b03163314806120b45750600e546001600160a01b031633145b6120d05760405162461bcd60e51b8152600401610cde90615417565b6011546001600160a01b038281169116141561213f5760405162461bcd60e51b815260206004820152602860248201527f544b4e3a2054686520726f7574657220616c7265616479206861732074686174604482015267206164647265737360c01b6064820152608401610cde565b601180546001600160a01b0319166001600160a01b0392909216919091179055565b600f546001600160a01b03163314806121845750600e546001600160a01b031633145b6121a05760405162461bcd60e51b8152600401610cde90615417565b601b55565b600f546001600160a01b03163314806121c85750600e546001600160a01b031633145b6121e45760405162461bcd60e51b8152600401610cde90615417565b601955565b60006121f4836141f0565b61220057506000611233565b8161229a57604051635bce6b3b60e01b815273__$f4f4ad711baf0b6680854290afed407660$__90635bce6b3b9061223f906007908790600401615523565b60206040518083038186803b15801561225757600080fd5b505af415801561226b573d6000803e3d6000fd5b505050506040513d601f19601f8201168201806040525081019061228f9190614fa8565b600101549050611233565b816001141561233857604051635bce6b3b60e01b815273__$f4f4ad711baf0b6680854290afed407660$__90635bce6b3b906122dd906007908790600401615523565b60206040518083038186803b1580156122f557600080fd5b505af4158015612309573d6000803e3d6000fd5b505050506040513d601f19601f8201168201806040525081019061232d9190614fa8565b600201549050611233565b81600214156123d657604051635bce6b3b60e01b815273__$f4f4ad711baf0b6680854290afed407660$__90635bce6b3b9061237b906007908790600401615523565b60206040518083038186803b15801561239357600080fd5b505af41580156123a7573d6000803e3d6000fd5b505050506040513d601f19601f820116820180604052508101906123cb9190614fa8565b600301549050611233565b816003141561247457604051635bce6b3b60e01b815273__$f4f4ad711baf0b6680854290afed407660$__90635bce6b3b90612419906007908790600401615523565b60206040518083038186803b15801561243157600080fd5b505af4158015612445573d6000803e3d6000fd5b505050506040513d601f19601f820116820180604052508101906124699190614fa8565b600401549050611233565b816004141561251257604051635bce6b3b60e01b815273__$f4f4ad711baf0b6680854290afed407660$__90635bce6b3b906124b7906007908790600401615523565b60206040518083038186803b1580156124cf57600080fd5b505af41580156124e3573d6000803e3d6000fd5b505050506040513d601f19601f820116820180604052508101906125079190614fa8565b600501549050611233565b81600514156125b057604051635bce6b3b60e01b815273__$f4f4ad711baf0b6680854290afed407660$__90635bce6b3b90612555906007908790600401615523565b60206040518083038186803b15801561256d57600080fd5b505af4158015612581573d6000803e3d6000fd5b505050506040513d601f19601f820116820180604052508101906125a59190614fa8565b600601549050611233565b816006141561264e57604051635bce6b3b60e01b815273__$f4f4ad711baf0b6680854290afed407660$__90635bce6b3b906125f3906007908790600401615523565b60206040518083038186803b15801561260b57600080fd5b505af415801561261f573d6000803e3d6000fd5b505050506040513d601f19601f820116820180604052508101906126439190614fa8565b600701549050611233565b81600714156126ec57604051635bce6b3b60e01b815273__$f4f4ad711baf0b6680854290afed407660$__90635bce6b3b90612691906007908790600401615523565b60206040518083038186803b1580156126a957600080fd5b505af41580156126bd573d6000803e3d6000fd5b505050506040513d601f19601f820116820180604052508101906126e19190614fa8565b600801549050611233565b816008141561278a57604051635bce6b3b60e01b815273__$f4f4ad711baf0b6680854290afed407660$__90635bce6b3b9061272f906007908790600401615523565b60206040518083038186803b15801561274757600080fd5b505af415801561275b573d6000803e3d6000fd5b505050506040513d601f19601f8201168201806040525081019061277f9190614fa8565b600901549050611233565b816009141561282857604051635bce6b3b60e01b815273__$f4f4ad711baf0b6680854290afed407660$__90635bce6b3b906127cd906007908790600401615523565b60206040518083038186803b1580156127e557600080fd5b505af41580156127f9573d6000803e3d6000fd5b505050506040513d601f19601f8201168201806040525081019061281d9190614fa8565b600a01549050611233565b81600a14156128c657604051635bce6b3b60e01b815273__$f4f4ad711baf0b6680854290afed407660$__90635bce6b3b9061286b906007908790600401615523565b60206040518083038186803b15801561288357600080fd5b505af4158015612897573d6000803e3d6000fd5b505050506040513d601f19601f820116820180604052508101906128bb9190614fa8565b600b01549050611233565b50600092915050565b6000600482815481106128f257634e487b7160e01b600052603260045260246000fd5b6000918252602090912001546001600160a01b031692915050565b600f546001600160a01b03163314806129305750600e546001600160a01b031633145b61294c5760405162461bcd60e51b8152600401610cde90615417565b601380546001600160a01b0319166001600160a01b0392909216919091179055565b600f546001600160a01b03163314806129915750600e546001600160a01b031633145b6129ad5760405162461bcd60e51b8152600401610cde90615417565b60178190556016546015548291611045916156e4565b604051633846629960e01b8152600760048201526024810182905260609073__$f4f4ad711baf0b6680854290afed407660$__9063384662999060440160006040518083038186803b158015612a1857600080fd5b505af4158015612a2c573d6000803e3d6000fd5b505050506040513d6000823e601f3d908101601f19168201604052612a5491908101906151c6565b5192915050565b600080805b604051630fd2479b60e31b81526007600482015273__$f4f4ad711baf0b6680854290afed407660$__90637e923cd89060240160206040518083038186803b158015612aab57600080fd5b505af4158015612abf573d6000803e3d6000fd5b505050506040513d601f19601f82011682018060405250810190612ae39190614fa8565b811015612b9a57604051633846629960e01b8152600760048201526024810182905273__$f4f4ad711baf0b6680854290afed407660$__9063384662999060440160006040518083038186803b158015612b3c57600080fd5b505af4158015612b50573d6000803e3d6000fd5b505050506040513d6000823e601f3d908101601f19168201604052612b7891908101906151c6565b60a00151612b8690836156e4565b915080612b92816157b9565b915050612a60565b50905090565b601c54610100900460ff16612bf75760405162461bcd60e51b815260206004820181905260248201527f4e6f6465206372656174696f6e206e6f7420617574686f72697a6564207965746044820152606401610cde565b612c00826141f0565b612c4c5760405162461bcd60e51b815260206004820152601b60248201527f6e6f6465547970654e616d6520646f6573206e6f7420657869737400000000006044820152606401610cde565b60125433906001600160a01b03168114801590612c7757506013546001600160a01b03828116911614155b612c935760405162461bcd60e51b8152600401610cde906154d8565b604051635bce6b3b60e01b815260009073__$f4f4ad711baf0b6680854290afed407660$__90635bce6b3b90612cd0906007908890600401615523565b60206040518083038186803b158015612ce857600080fd5b505af4158015612cfc573d6000803e3d6000fd5b505050506040513d601f19601f82011682018060405250810190612d209190614fa8565b90508281600a01541015612d6d5760405162461bcd60e51b815260206004820152601460248201527311db1bd8985b081b1a5b5a5d081c995858da195960621b6044820152606401610cde565b8281600a016000828254612d81919061573b565b9250508190555082600d85604051612d999190615375565b9081526040805160209281900383019020336000908152925281208054909190612dc49084906156e4565b9091555050600b810154604051600d90612ddf908790615375565b908152604080516020928190038301902033600090815292529020541115612e5e5760405162461bcd60e51b815260206004820152602c60248201527f4372656174696f6e20776974682070656e64696e67206c696d6974207265616360448201526b3432b2103337b9103ab9b2b960a11b6064820152608401610cde565b6000838260010154612e70919061571c565b9050612e7a614c7b565b6000805b604051630fd2479b60e31b81526007600482015273__$f4f4ad711baf0b6680854290afed407660$__90637e923cd89060240160206040518083038186803b158015612ec957600080fd5b505af4158015612edd573d6000803e3d6000fd5b505050506040513d601f19601f82011682018060405250810190612f019190614fa8565b81108015612f0f5750600084115b156130f157604051633846629960e01b8152600760048201526024810182905273__$f4f4ad711baf0b6680854290afed407660$__9063384662999060440160006040518083038186803b158015612f6657600080fd5b505af4158015612f7a573d6000803e3d6000fd5b505050506040513d6000823e601f3d908101601f19168201604052612fa291908101906151c6565b92506000600b8460000151604051612fba9190615375565b90815260408051602092819003830190206001600160a01b038a1660009081529252812091505b815481108015612ff15750600086115b156130dc57613019828281548110610ba057634e487b7160e01b600052603260045260246000fd5b9350838610613068574282828154811061304357634e487b7160e01b600052603260045260246000fd5b6000918252602090912060026003909202010155613061848761573b565b95506130ca565b6060850151604086015161307c908661571c565b61308691906156fc565b613090904261573b565b8282815481106130b057634e487b7160e01b600052603260045260246000fd5b906000526020600020906003020160020181905550600095505b806130d4816157b9565b915050612fe1565b505080806130e9906157b9565b915050612e7e565b5082156131375760405162461bcd60e51b8152602060048201526014602482015273496e73756666696369656e742050656e64696e6760601b6044820152606401610cde565b6131428588886143e0565b50505050505050565b601c54610100900460ff166131a25760405162461bcd60e51b815260206004820181905260248201527f4e6f6465206372656174696f6e206e6f7420617574686f72697a6564207965746044820152606401610cde565b6131ab826141f0565b6131f75760405162461bcd60e51b815260206004820152601b60248201527f6e6f6465547970654e616d6520646f6573206e6f7420657869737400000000006044820152606401610cde565b60125433906001600160a01b0316811480159061322257506013546001600160a01b03828116911614155b61323e5760405162461bcd60e51b8152600401610cde906154d8565b604051635bce6b3b60e01b8152600090839073__$f4f4ad711baf0b6680854290afed407660$__90635bce6b3b9061327d906007908990600401615523565b60206040518083038186803b15801561329557600080fd5b505af41580156132a9573d6000803e3d6000fd5b505050506040513d601f19601f820116820180604052508101906132cd9190614fa8565b600101546132db919061571c565b600f546040516370a0823160e01b81526001600160a01b0385811660048301529293508392909116906370a082319060240160206040518083038186803b15801561332557600080fd5b505afa158015613339573d6000803e3d6000fd5b505050506040513d601f19601f8201168201806040525081019061335d9190614fa8565b10156133ab5760405162461bcd60e51b815260206004820152601d60248201527f42616c616e636520746f6f206c6f7720666f72206372656174696f6e2e0000006044820152606401610cde565b600f546040516323b872dd60e01b81526001600160a01b03848116600483015230602483015260448201849052909116906323b872dd90606401602060405180830381600087803b1580156133ff57600080fd5b505af1158015613413573d6000803e3d6000fd5b505050506040513d601f19601f820116820180604052508101906134379190614f54565b50600f546040516370a0823160e01b81523060048201526000916001600160a01b0316906370a082319060240160206040518083038186803b15801561347c57600080fd5b505afa158015613490573d6000803e3d6000fd5b505050506040513d601f19601f820116820180604052508101906134b49190614fa8565b601b54909150811080159081906134d25750601a54610100900460ff165b80156134e15750601a5460ff16155b1561368757601a805460ff19166001179055601754600090606490613506908561571c565b61351091906156fc565b601254909150613529906001600160a01b031682614896565b600060646015548561353b919061571c565b61354591906156fc565b600f5460135460405163a9059cbb60e01b81526001600160a01b03918216600482015260248101849052929350169063a9059cbb90604401602060405180830381600087803b15801561359757600080fd5b505af11580156135ab573d6000803e3d6000fd5b505050506040513d601f19601f820116820180604052508101906135cf9190614f54565b5060006064601654866135e2919061571c565b6135ec91906156fc565b90506135f7816148e5565b600f546040516370a0823160e01b8152306004820152613679916001600160a01b0316906370a082319060240160206040518083038186803b15801561363c57600080fd5b505afa158015613650573d6000803e3d6000fd5b505050506040513d601f19601f820116820180604052508101906136749190614fa8565b61469c565b5050601a805460ff19169055505b610fe98487876143e0565b600f546001600160a01b03163314806136b55750600e546001600160a01b031633145b6136d15760405162461bcd60e51b8152600401610cde90615417565b6136da8b6141f0565b61373a5760405162461bcd60e51b815260206004820152602b60248201527f6368616e67654e6f6465547970653a206e6f6465547970654e616d6520646f6560448201526a1cc81b9bdd08195e1a5cdd60aa1b6064820152608401610cde565b6000600773__$f4f4ad711baf0b6680854290afed407660$__635bce6b3b90918e6040518363ffffffff1660e01b8152600401613778929190615523565b60206040518083038186803b15801561379057600080fd5b505af41580156137a4573d6000803e3d6000fd5b505050506040513d601f19601f820116820180604052508101906137c89190614fa8565b90508a156137d857600181018b90555b89156137e657600281018a90555b88156137f457600381018990555b871561380257600481018890555b861561381057600681018790555b851561381e57600781018690555b841561382c57600881018590555b831561383a57600981018490555b821561384857600a81018390555b811561385657600b81018290555b505050505050505050505050565b601080546138719061577e565b80601f016020809104026020016040519081016040528092919081815260200182805461389d9061577e565b80156138ea5780601f106138bf576101008083540402835291602001916138ea565b820191906000526020600020905b8154815290600101906020018083116138cd57829003601f168201915b505050505081565b60606138fd826141f0565b61393d5760405162461bcd60e51b815260206004820152601160248201527013985b5948191bd95cdb9d08195e1a5cdd607a1b6044820152606401610cde565b60408051600b8082526101808201909252600091602082016101608036833701905050905061396a614c7b565b604051635bce6b3b60e01b815273__$f4f4ad711baf0b6680854290afed407660$__90635bce6b3b906139a4906007908890600401615523565b60206040518083038186803b1580156139bc57600080fd5b505af41580156139d0573d6000803e3d6000fd5b505050506040513d601f19601f820116820180604052508101906139f49190614fa8565b60405180610180016040529081600082018054613a109061577e565b80601f0160208091040260200160405190810160405280929190818152602001828054613a3c9061577e565b8015613a895780601f10613a5e57610100808354040283529160200191613a89565b820191906000526020600020905b815481529060010190602001808311613a6c57829003601f168201915b50505050508152602001600182015481526020016002820154815260200160038201548152602001600482015481526020016005820154815260200160068201548152602001600782015481526020016008820154815260200160098201548152602001600a8201548152602001600b820154815250509050806020015182600081518110613b2857634e487b7160e01b600052603260045260246000fd5b602002602001018181525050806040015182600181518110613b5a57634e487b7160e01b600052603260045260246000fd5b602002602001018181525050806060015182600281518110613b8c57634e487b7160e01b600052603260045260246000fd5b602002602001018181525050806080015182600381518110613bbe57634e487b7160e01b600052603260045260246000fd5b6020026020010181815250508060a0015182600481518110613bf057634e487b7160e01b600052603260045260246000fd5b6020026020010181815250508060c0015182600581518110613c2257634e487b7160e01b600052603260045260246000fd5b6020026020010181815250508060e0015182600681518110613c5457634e487b7160e01b600052603260045260246000fd5b60200260200101818152505080610100015182600781518110613c8757634e487b7160e01b600052603260045260246000fd5b60200260200101818152505080610120015182600881518110613cba57634e487b7160e01b600052603260045260246000fd5b60200260200101818152505080610140015182600981518110613ced57634e487b7160e01b600052603260045260246000fd5b60200260200101818152505080610160015182600a81518110613d2057634e487b7160e01b600052603260045260246000fd5b60209081029190910101525092915050565b604051630fd2479b60e31b81526007600482015260009073__$f4f4ad711baf0b6680854290afed407660$__90637e923cd89060240160206040518083038186803b158015613d8057600080fd5b505af4158015613d94573d6000803e3d6000fd5b505050506040513d601f19601f82011682018060405250810190613db89190614fa8565b905090565b6000613dc8836141f0565b613dd457506000611233565b600b8360405161120b9190615375565b600f546001600160a01b0316331480613e075750600e546001600160a01b031633145b613e235760405162461bcd60e51b8152600401610cde90615417565b601c8054911515620100000262ff000019909216919091179055565b600f546001600160a01b0316331480613e625750600e546001600160a01b031633145b613e7e5760405162461bcd60e51b8152600401610cde90615417565b613e87816141f0565b613eca5760405162461bcd60e51b8152602060048201526014602482015273139bd919551e5c1948191bd95cdb88195e1a5cdd60621b6044820152606401610cde565b8051613edd906010906020840190614d1b565b5050565b600f546001600160a01b0316331480613f045750600e546001600160a01b031633145b613f205760405162461bcd60e51b8152600401610cde90615417565b601280546001600160a01b0319166001600160a01b0392909216919091179055565b8051604051635bce6b3b60e01b8152600091829173__$f4f4ad711baf0b6680854290afed407660$__91635bce6b3b91613f8191600791600401615523565b60206040518083038186803b158015613f9957600080fd5b505af4158015613fad573d6000803e3d6000fd5b505050506040513d601f19601f82011682018060405250810190613fd19190614fa8565b60405180610180016040529081600082018054613fed9061577e565b80601f01602080910402602001604051908101604052809291908181526020018280546140199061577e565b80156140665780601f1061403b57610100808354040283529160200191614066565b820191906000526020600020905b81548152906001019060200180831161404957829003601f168201915b50505050508152602001600182015481526020016002820154815260200160038201548152602001600482015481526020016005820154815260200160068201548152602001600782015481526020016008820154815260200160098201548152602001600a8201548152602001600b820154815250509050600081604001518460400151426140f6919061573b565b101561415557604082015161410c90606461571c565b608083015161411c90606461573b565b604086015161412b904261573b565b846060015161413a919061571c565b614144919061571c565b61414e91906156fc565b9050614186565b816040015184604001514261416a919061573b565b8360600151614179919061571c565b61418391906156fc565b90505b816020015182604001518560200151426141a0919061573b565b84606001516141af919061571c565b6141b991906156fc565b10156141e95760648260e0015160646141d2919061573b565b6141dc908361571c565b6141e691906156fc565b90505b9392505050565b6040516306fb0b3960e51b8152600090819073__$f4f4ad711baf0b6680854290afed407660$__9063df6167209061422f906007908790600401615523565b60206040518083038186803b15801561424757600080fd5b505af415801561425b573d6000803e3d6000fd5b505050506040513d601f19601f8201168201806040525081019061427f9190614fa8565b121592915050565b600080546001600160a01b0385168252600260205260408220548391906142ae908661571c565b6142b891906156fc565b6141e6919061573b565b804710156143125760405162461bcd60e51b815260206004820152601d60248201527f416464726573733a20696e73756666696369656e742062616c616e63650000006044820152606401610cde565b6000826001600160a01b03168260405160006040518083038185875af1925050503d806000811461435f576040519150601f19603f3d011682016040523d82523d6000602084013e614364565b606091505b50509050806143db5760405162461bcd60e51b815260206004820152603a60248201527f416464726573733a20756e61626c6520746f2073656e642076616c75652c207260448201527f6563697069656e74206d617920686176652072657665727465640000000000006064820152608401610cde565b505050565b6143e9826141f0565b6144475760405162461bcd60e51b815260206004820152602960248201527f5f6372656174654e6f6465733a206e6f6465547970654e616d6520646f6573206044820152681b9bdd08195e1a5cdd60ba1b6064820152608401610cde565b600081116144aa5760405162461bcd60e51b815260206004820152602a60248201527f5f6372656174654e6f6465733a20636f756e742063616e6e6f74206265206c6560448201526939b9903a3430b710189760b11b6064820152608401610cde565b604051635bce6b3b60e01b815260009073__$f4f4ad711baf0b6680854290afed407660$__90635bce6b3b906144e7906007908790600401615523565b60206040518083038186803b1580156144ff57600080fd5b505af4158015614513573d6000803e3d6000fd5b505050506040513d601f19601f820116820180604052508101906145379190614fa8565b90508181600501600082825461454d91906156e4565b90915550506006810154600582015411156145a05760405162461bcd60e51b815260206004820152601360248201527213585e08185b1c9958591e481c995858da1959606a1b6044820152606401610cde565b60005b8281101561179b57600b846040516145bb9190615375565b9081526040805191829003602090810183206001600160a01b038916600090815290825282812060608501845288855242858401819052938501939093528254600181018455928152819020835180516003909402909101926146219284920190614d1b565b506020820151600182015560409091015160029091015580614642816157b9565b9150506145a3565b604080516001600160a01b038416602482015260448082018490528251808303909101815260649091019091526020810180516001600160e01b031663a9059cbb60e01b1790526143db90849061496c565b6040805160028082526060820183526000926020830190803683375050600f5482519293506001600160a01b0316918391506000906146eb57634e487b7160e01b600052603260045260246000fd5b6001600160a01b03928316602091820292909201810191909152601154604080516339d94ae160e11b8152905191909316926373b295c2926004808301939192829003018186803b15801561473f57600080fd5b505afa158015614753573d6000803e3d6000fd5b505050506040513d601f19601f820116820180604052508101906147779190614e6c565b8160018151811061479857634e487b7160e01b600052603260045260246000fd5b6001600160a01b039283166020918202929092010152600f5460115460405163095ea7b360e01b815290831660048201526024810185905291169063095ea7b390604401602060405180830381600087803b1580156147f657600080fd5b505af115801561480a573d6000803e3d6000fd5b505050506040513d601f19601f8201168201806040525081019061482e9190614f54565b50601154604051633b158ab160e11b81526001600160a01b039091169063762b1562906148689085906000908690309042906004016155f7565b600060405180830381600087803b15801561488257600080fd5b505af1158015610fe9573d6000803e3d6000fd5b476148a08261469c565b60006148ac824761573b565b6040519091506001600160a01b0385169082156108fc029083906000818181858888f1935050505015801561179b573d6000803e3d6000fd5b60006148f26002836156fc565b90506000614900828461573b565b90504761490c8361469c565b6000614918824761573b565b90506149248382614a3e565b60408051858152602081018390529081018490527f17bbfb9a6069321b6ded73bd96327c9e6b7212a5cd51ff219cd61370acafb5619060600160405180910390a15050505050565b60006149c1826040518060400160405280602081526020017f5361666545524332303a206c6f772d6c6576656c2063616c6c206661696c6564815250856001600160a01b0316614b709092919063ffffffff16565b8051909150156143db57808060200190518101906149df9190614f54565b6143db5760405162461bcd60e51b815260206004820152602a60248201527f5361666545524332303a204552433230206f7065726174696f6e20646964206e6044820152691bdd081cdd58d8d9595960b21b6064820152608401610cde565b600f5460115460405163095ea7b360e01b81526001600160a01b0391821660048201526024810185905291169063095ea7b390604401602060405180830381600087803b158015614a8e57600080fd5b505af1158015614aa2573d6000803e3d6000fd5b505050506040513d601f19601f82011682018060405250810190614ac69190614f54565b50601154600f54601454604051637c8d9fb960e11b81526001600160a01b03928316600482015260248101869052600060448201819052606482015290821660848201524260a482015291169063f91b3f7290839060c4016060604051808303818588803b158015614b3757600080fd5b505af1158015614b4b573d6000803e3d6000fd5b50505050506040513d601f19601f8201168201806040525081019061179b91906152e2565b60606141e6848460008585843b614bc95760405162461bcd60e51b815260206004820152601d60248201527f416464726573733a2063616c6c20746f206e6f6e2d636f6e74726163740000006044820152606401610cde565b600080866001600160a01b03168587604051614be59190615375565b60006040518083038185875af1925050503d8060008114614c22576040519150601f19603f3d011682016040523d82523d6000602084013e614c27565b606091505b5091509150614c37828286614c42565b979650505050505050565b60608315614c515750816141e9565b825115614c615782518084602001fd5b8160405162461bcd60e51b8152600401610cde9190615404565b6040518061018001604052806060815260200160008152602001600081526020016000815260200160008152602001600081526020016000815260200160008152602001600081526020016000815260200160008152602001600081525090565b508054614ce89061577e565b6000825580601f10614cfa5750614d18565b601f016020900490600052602060002090810190614d189190614d9f565b50565b828054614d279061577e565b90600052602060002090601f016020900481019282614d495760008555614d8f565b82601f10614d6257805160ff1916838001178555614d8f565b82800160010185558215614d8f579182015b82811115614d8f578251825591602001919060010190614d74565b50614d9b929150614d9f565b5090565b5b80821115614d9b5760008155600101614da0565b600082601f830112614dc4578081fd5b8135614dd7614dd2826156bc565b615667565b818152846020838601011115614deb578283fd5b816020850160208301379081016020019190915292915050565b600082601f830112614e15578081fd5b8151614e23614dd2826156bc565b818152846020838601011115614e37578283fd5b614e48826020830160208701615752565b949350505050565b600060208284031215614e61578081fd5b81356141e981615800565b600060208284031215614e7d578081fd5b81516141e981615800565b60008060408385031215614e9a578081fd5b823567ffffffffffffffff80821115614eb1578283fd5b818501915085601f830112614ec4578283fd5b81356020614ed4614dd283615698565b82815281810190858301875b85811015614f0957614ef78c8684358b0101614db4565b84529284019290840190600101614ee0565b50909750505086013592505080821115614f21578283fd5b50614f2e85828601614db4565b9150509250929050565b600060208284031215614f49578081fd5b81356141e981615815565b600060208284031215614f65578081fd5b81516141e981615815565b60008060408385031215614f82578182fd5b8235614f8d81615800565b91506020830135614f9d81615800565b809150509250929050565b600060208284031215614fb9578081fd5b5051919050565b600060208284031215614fd1578081fd5b813567ffffffffffffffff811115614fe7578182fd5b614e4884828501614db4565b60008060408385031215615005578182fd5b823567ffffffffffffffff81111561501b578283fd5b61502785828601614db4565b9250506020830135614f9d81615800565b6000806040838503121561504a578182fd5b823567ffffffffffffffff80821115615061578384fd5b61506d86838701614db4565b9350602091508185013581811115615083578384fd5b85019050601f81018613615095578283fd5b80356150a3614dd282615698565b81815283810190838501858402850186018a10156150bf578687fd5b8694505b838510156150e15780358352600194909401939185019185016150c3565b5080955050505050509250929050565b60008060408385031215615103578182fd5b823567ffffffffffffffff811115615119578283fd5b61512585828601614db4565b95602094909401359450505050565b60008060008060008060008060008060006101608c8e031215615155578687fd5b8b3567ffffffffffffffff81111561516b578788fd5b6151778e828f01614db4565b9e60208e01359e5060408e01359d60608101359d5060808101359c5060a08101359b5060c08101359a5060e0810135995061010081013598506101208101359750610140013595509350505050565b6000602082840312156151d7578081fd5b815167ffffffffffffffff808211156151ee578283fd5b8184019150610180808387031215615204578384fd5b61520d81615667565b905082518281111561521d578485fd5b61522987828601614e05565b8252506020838101519082015260408084015190820152606080840151908201526080808401519082015260a0808401519082015260c0808401519082015260e080840151908201526101008084015190820152610120808401519082015261014080840151908201526101609283015192810192909252509392505050565b6000602082840312156152ba578081fd5b5035919050565b600080604083850312156152d3578182fd5b50508035926020909101359150565b6000806000606084860312156152f6578081fd5b8351925060208401519150604084015190509250925092565b6000815180845260208085019450808401835b8381101561533e57815187529582019590820190600101615322565b509495945050505050565b60008151808452615361816020860160208601615752565b601f01601f19169290920160200192915050565b60008251615387818460208701615752565b9190910192915050565b6000602080830181845280855180835260408601915060408482028701019250838701855b828110156153e457603f198886030184526153d285835161530f565b945092850192908501906001016153b6565b5092979650505050505050565b6000602082526141e9602083018461530f565b6000602082526141e96020830184615349565b602080825260169082015275165bdd48105c9948139bdd08105d5d1a1bdc9a5e995960521b604082015260600190565b60208082526026908201527f5061796d656e7453706c69747465723a206163636f756e7420686173206e6f2060408201526573686172657360d01b606082015260800190565b6020808252602b908201527f5061796d656e7453706c69747465723a206163636f756e74206973206e6f742060408201526a191d59481c185e5b595b9d60aa1b606082015260800190565b6020808252602b908201527f747265617375727920616e642072657761726473506f6f6c2063616e6e6f742060408201526a637265617465206e6f646560a81b606082015260800190565b6000838252604060208301526141e66040830184615349565b6000848252606060208301526155556060830185615349565b8281036040840152610180845181835261557182840182615349565b9150506020850151602083015260408501516040830152606085015160608301526080850151608083015260a085015160a083015260c085015160c083015260e085015160e08301526101008086015181840152506101208086015181840152506101408086015181840152506101608086015181840152508092505050949350505050565b600060a082018783526020878185015260a0604085015281875180845260c0860191508289019350845b818110156156465784516001600160a01b031683529383019391830191600101615621565b50506001600160a01b03969096166060850152505050608001529392505050565b604051601f8201601f1916810167ffffffffffffffff81118282101715615690576156906157ea565b604052919050565b600067ffffffffffffffff8211156156b2576156b26157ea565b5060209081020190565b600067ffffffffffffffff8211156156d6576156d66157ea565b50601f01601f191660200190565b600082198211156156f7576156f76157d4565b500190565b60008261571757634e487b7160e01b81526012600452602481fd5b500490565b6000816000190483118215151615615736576157366157d4565b500290565b60008282101561574d5761574d6157d4565b500390565b60005b8381101561576d578181015183820152602001615755565b8381111561208b5750506000910152565b60028104600182168061579257607f821691505b602082108114156157b357634e487b7160e01b600052602260045260246000fd5b50919050565b60006000198214156157cd576157cd6157d4565b5060010190565b634e487b7160e01b600052601160045260246000fd5b634e487b7160e01b600052604160045260246000fd5b6001600160a01b0381168114614d1857600080fd5b8015158114614d1857600080fdfea264697066735822122074bccb2a08ad1167bf333991e72da40404ca56d48cb6d1714e334f381d5f2d4164736f6c63430008020033",
  "linkReferences": {
    "contracts/IterableNodeTypeMapping.sol": {
      "IterableNodeTypeMapping": [
        {
          "length": 20,
          "start": 5420
        },
        {
          "length": 20,
          "start": 5565
        },
        {
          "length": 20,
          "start": 6298
        },
        {
          "length": 20,
          "start": 7655
        },
        {
          "length": 20,
          "start": 8369
        },
        {
          "length": 20,
          "start": 9229
        },
        {
          "length": 20,
          "start": 10048
        },
        {
          "length": 20,
          "start": 10248
        },
        {
          "length": 20,
          "start": 10393
        },
        {
          "length": 20,
          "start": 11533
        },
        {
          "length": 20,
          "start": 11691
        },
        {
          "length": 20,
          "start": 11849
        },
        {
          "length": 20,
          "start": 12007
        },
        {
          "length": 20,
          "start": 12165
        },
        {
          "length": 20,
          "start": 12323
        },
        {
          "length": 20,
          "start": 12481
        },
        {
          "length": 20,
          "start": 12639
        },
        {
          "length": 20,
          "start": 12797
        },
        {
          "length": 20,
          "start": 12955
        },
        {
          "length": 20,
          "start": 13113
        },
        {
          "length": 20,
          "start": 13532
        },
        {
          "length": 20,
          "start": 13679
        },
        {
          "length": 20,
          "start": 13824
        },
        {
          "length": 20,
          "start": 14238
        },
        {
          "length": 20,
          "start": 14733
        },
        {
          "length": 20,
          "start": 14890
        },
        {
          "length": 20,
          "start": 15691
        },
        {
          "length": 20,
          "start": 16953
        },
        {
          "length": 20,
          "start": 17522
        },
        {
          "length": 20,
          "start": 18500
        },
        {
          "length": 20,
          "start": 19025
        },
        {
          "length": 20,
          "start": 19709
        },
        {
          "length": 20,
          "start": 20405
        }
      ]
    }
  },
  "deployedLinkReferences": {
    "contracts/IterableNodeTypeMapping.sol": {
      "IterableNodeTypeMapping": [
        {
          "length": 20,
          "start": 2611
        },
        {
          "length": 20,
          "start": 2756
        },
        {
          "length": 20,
          "start": 3489
        },
        {
          "length": 20,
          "start": 4846
        },
        {
          "length": 20,
          "start": 5560
        },
        {
          "length": 20,
          "start": 6420
        },
        {
          "length": 20,
          "start": 7239
        },
        {
          "length": 20,
          "start": 7439
        },
        {
          "length": 20,
          "start": 7584
        },
        {
          "length": 20,
          "start": 8724
        },
        {
          "length": 20,
          "start": 8882
        },
        {
          "length": 20,
          "start": 9040
        },
        {
          "length": 20,
          "start": 9198
        },
        {
          "length": 20,
          "start": 9356
        },
        {
          "length": 20,
          "start": 9514
        },
        {
          "length": 20,
          "start": 9672
        },
        {
          "length": 20,
          "start": 9830
        },
        {
          "length": 20,
          "start": 9988
        },
        {
          "length": 20,
          "start": 10146
        },
        {
          "length": 20,
          "start": 10304
        },
        {
          "length": 20,
          "start": 10723
        },
        {
          "length": 20,
          "start": 10870
        },
        {
          "length": 20,
          "start": 11015
        },
        {
          "length": 20,
          "start": 11429
        },
        {
          "length": 20,
          "start": 11924
        },
        {
          "length": 20,
          "start": 12081
        },
        {
          "length": 20,
          "start": 12882
        },
        {
          "length": 20,
          "start": 14144
        },
        {
          "length": 20,
          "start": 14713
        },
        {
          "length": 20,
          "start": 15691
        },
        {
          "length": 20,
          "start": 16216
        },
        {
          "length": 20,
          "start": 16900
        },
        {
          "length": 20,
          "start": 17596
        }
      ]
    }
  }
}